:100000000EEF05F00000000000EF00F0000000001F
:0A0010000000000000000000F3D71C
:10001C00480E0C6E6C0E0D6E0D2EFED70C2EFCD7F2
:04002C0000001200BE
:0C003000A60E0D6E0D2EFED70000120073
:0A003C00030E0D6E0D2EFED712000C
:1000460055C003F056C004F057C005F058C006F07E
:1000560059A62CD003C002F00232029E0232029E42
:100066000232029E050E016E04C000F0015004E04B
:1000760000360090FF0FFBD753C0E1FF54C0E2FFEC
:1000860000500210E66E534A542A050E016E03C054
:1000960000F0015004E000360090FF0FFBD753C07C
:1000A600E1FF54C0E2FF00C0E6FF42D0050E006E3D
:1000B60005C002F0005004E00232029EFF0FFBD79B
:1000C60006C000F000360090003600900036009022
:1000D60053C0E1FF54C0E2FF00500210E66E534ADF
:1000E600542A05C000F00036009000360090003615
:1000F6000090E00E0016080E0010016E030E0514A7
:10010600006E53C0E1FF54C0E2FF00500110E66EDE
:10011600534A542A53C0E1FF54C0E2FF04C0E6FF2D
:10012600534A542A53C0E1FF54C0E2FF03C0E6FF1E
:020136001200B5
:1001380053BE02D0829601D0828653BC02D08294EC
:1001480001D0828453BA02D0829201D0828253B8FD
:1001580002D0829001D082802AB002D0828801D059
:100168008298828A67DF829A53B602D0829601D03B
:10017800828653B402D0829401D0828453B202D0D2
:10018800829201D0828253B002D0829001D08280C4
:100198002AB002D0828801D08298828A4BDF829A64
:0C01A8002AA002D037DF01D03FDF120098
:1001B400086A080E0C6E003408360450085ED8B085
:0E01C40002D00826D89000360C2EF5D7120077
:1001D2004C064D064E064F065006060E006E4CC0EB
:1001E20070FF005004E070367090FF0FFBD74D5047
:1001F20070124EC071FF7136719071367190713606
:1002020071905050711251A4718C51B0718E4FC0C7
:0802120072FF51B2728C120060
:10021A0060D0000E536E0F0E546E4DC055F04EC096
:10022A0056F04FC057F050C058F051C059F006DF91
:10023A0060D0040E536E0F0E546E4DC055F04EC072
:10024A0056F04FC057F050C058F051C059F0F6DE82
:10025A0050D0080E536E0F0E546E4DC055F04EC05E
:10026A0056F04FC057F050C058F051C059F0E6DE72
:10027A0040D00C0E536E0F0E546E4DC055F04EC04A
:10028A0056F04FC057F050C058F051C059F0D6DE62
:10029A0030D0100E536E0F0E546E4DC055F04EC036
:1002AA0056F04FC057F050C058F051C059F0C6DE52
:1002BA0020D0140E536E0F0E546E4DC055F04EC022
:1002CA0056F04FC057F050C058F051C059F0B6DE42
:1002DA0010D04C50000A9DE04C50010AAAE04C5044
:1002EA00020AB7E04C50030AC4E04C50040AD1E0B9
:0402FA00E0D7120037
:1002FE004F6A506A516A526A4EA649D04CC0E9FF05
:10030E004DC0EAFFEECF02F0050E006E02C04FF0B8
:10031E00000E506E516E526E005004E04F324F9EE2
:10032E00FF0FFBD7516A526A4FC050F04F6A02C09E
:10033E0000F0003600900036009000360090000E5F
:10034E00516E526E00504F12000E5012000E50BEE3
:10035E00FF0E516E526E000E516E526E4C4A4D2A69
:10036E004CC0E9FF4DC0EAFFEECF02F0050E016E64
:10037E0002C000F0015004E00032009EFF0FFBD7D8
:10038E0000504F12000E50125112521272D04CC029
:10039E00E9FF4DC0EAFFEECF01F0050E006E01C081
:1003AE0004F0005004E004360490FF0FFBD74CC05D
:1003BE00E9FF4DC0EAFFEECF01F0030E006E01C063
:1003CE004FF0000E506E516E526E005004E04F32E0
:1003DE004F9EFF0FFBD7516A526A4FC050F04F6AC3
:1003EE00000E516E526E4C4A4D2A4CC0E9FF4DC064
:1003FE00EAFFEECF00F0030E0014036EE00E0014C1
:10040E00026E02C000F00032009E0032009E0032EA
:10041E00009E035000120450001200504F12000EA6
:10042E0050125112521251C052F050C051F04FC0E2
:10043E0050F04F6A4C4A4D2A4CC0D9FF4DC0DAFFDE
:10044E00DE504F12000E50125112521251C052F085
:10045E0050C051F04FC050F04F6A4C4A4D2A4CC01C
:10046E00D9FF4DC0DAFFDE504F12000E501251125E
:10047E0052124FC000F050C001F051C002F052C0F5
:04048E0003F0120065
:100492004C50000A10E1180E536E0F0E546E4DC0F0
:1004A20055F04EC056F04FC057F050C058F051C0F2
:1004B20059F0C8DD0FD01C0E536E0F0E546E4DC096
:1004C20055F04EC056F04FC057F050C058F051C0D2
:0604D20059F0B8DD120034
:1004D8004D520AE04CC06FFFE00E6E14016E0150E1
:0E04E8004C1801E0F9D702D04CC06FFF120093
:0C04F6002A904CC053F01DDE2A8012003A
:100502000900F5CFE6FF0006FBE10106F9E1120062
:100512000FD0800E3F6E19D0C00E3F6E16D0940ED3
:100522003F6E13D0D40E3F6E10D0800E3F6E0DD0B2
:100532003F50010AEEE03F50020AEEE03F50030A4C
:10054200EEE03F50040AEEE0F0D74004006E3F5068
:10055200002600C03FF000C053F0EDDD2A90436A50
:1005620043504124E96E000E4220EA6EEE520BE047
:1005720043504124E96E000E4220EA6EEECF4CF069
:0A058200B9DF432AEDD72A801200EA
:10058C00949A94989490949294949496829A829833
:10059C0082968294829282903BDD3ADD39DD8282B2
:1005AC008280828A45DD829A33DD828A41DD829A9D
:1005BC002FDD828A3DDD829A2BDD8290828A38DDA6
:1005CC00829A26DD828A34DD829A82928286828A9F
:1005DC002FDD829A1DDD82968280828A29DD829AA5
:1005EC008290828A25DD829A13DD828A21DD829AAD
:1005FC008280828A1DDD829A0BDD8290828A18DDD0
:10060C00829A8286828482828280828A11DD829A98
:06061C00FFDC2A80120041
:1006220045C0E1FF46C0E2FFE66A60AE2BD0F10EA4
:100632006F16FF0E486EA49074AE0AD045C0E9FF53
:1006420046C0EAFF45C0E1FF46C0E2FFE686749E6F
:1006520060A417D0070E6014006E45C0E9FF46C0C3
:10066200EAFF45C0E1FF46C0E2FF0050EE1245C07E
:10067200E9FF46C0EAFF45C0E1FF46C0E2FF010EC6
:10068200EE1635D00F0150AF30D0F10E6F160A0EB4
:100692006F12486AA49274AC0AD045C0E9FF46C002
:1006A200EAFF45C0E1FF46C0E2FFE686749C070E02
:1006B2005015006E45C0E9FF46C0EAFF45C0E1FFA4
:1006C20046C0E2FF0050EE1245C0E9FF46C0EAFF15
:1006D200020EEE5C09E245C0E9FF46C0EAFF45C0F2
:1006E200E1FF46C0E2FFE68E02D0006A76D00F0E2E
:1006F2006514006E00C049F043C0E1FF44C0E2FF50
:1007020000C0E6FF65AC09D045C0E9FF46C0EAFF7C
:1007120045C0E1FF46C0E2FFE68C62A61DD045C09F
:10072200E9FF46C0EAFF45C0E1FF46C0E2FFE68AB4
:10073200610E4C6E0F0E4D6EF70E4E6EDFDD3FC03A
:10074200E1FF40C0E2FF00C0E6FF01C0E6FF02C0D9
:10075200E6FF03C0E6FF13D0610E4C6E0F0E4D6E26
:10076200FF0E4E6ECBDD3FC0E1FF40C0E2FF00C096
:10077200E6FF01C0E6FF02C0E6FF03C0E6FF476AEC
:10078200660E4A6E0F0E4B6E4950475C10E24750A0
:100792004124E16E000E4220E26E47504A24E96E87
:1007A200000E4B20EA6EEECFE6FF472AEDD7F10EA0
:1007B2006F16A4AE0AD045C0E9FF46C0EAFF45C0A5
:1007C200E1FF46C0E2FFE688A49E485202E0609E36
:0C07D20002D00F01509FFF0E006E1200BD
:1007DE00426A030E425C0AE242504024E16E000E71
:1007EE004120E26E200EE66E422AF3D7425040249C
:1007FE00E16E000E4120E26EE66A4206425040244F
:10080E00436E000E4120446E0A0E046E3FC000F08F
:10081E00CADC08C000F0300E002643C0E1FF44C021
:10082E00E2FF00C0E6FF0A0E046E3FC000F0BBDC24
:10083E0000C03FF00050000A01E102D04206DED7B0
:02084E00120096
:1008500093949386800E4C6EFF0E4D6E3DDE3FC02E
:100860004CF040C04DF041C04EF042C04FF043C08C
:1008700050F044C051F0ADDC600E4414606E100EB8
:100880004414016E0150100AD8B4608460CF50FF48
:100890004C6A4D6A4E6A4F6A506AF70E516EF9DD26
:1008A000010E4C6E4D6A4E6A4F6A506AF70E516ED9
:1008B000F0DD600E4414006E9F0E0010016E0FD02C
:1008C000F70E456EF70E466E11D0FF0E456EFF0E09
:1008D000466E0CD0FF0E456EF70E466E07D00150E7
:1008E000DF0AEEE00150BF0AF0E0F4D74C6A4D6A2F
:1008F0004E6A4F6A506A45C051F08FDC010E4C6E53
:100900004D6A4E6A4F6A506A45C051F086DC020E4D
:100910004C6E4D6A4E6A4F6A506A46C051F07DDC9B
:10092000030E4C6E4D6A4E6A4F6A506A46C051F0D3
:1009300074DC040E4C6E4D6A4E6A4F6A506A46C0B3
:1009400051F06BDC050E4C6E4D6A4E6A4F6A506A70
:1009500046C051F062DC4C6AFF0E4D6EBDDD1200E8
:100960000F0140B704D0F10E6F166F860FD030B76D
:1009700005D0F10E6F16060E6F1208D020B704D006
:10098000F10E6F166F8402D0006A47D0030E461432
:10099000606E46B611D0610E536E0F0E546E3FC09E
:1009A00055F040C056F041C057F042C058F0F70E25
:1009B000596E23EC00F010D0610E536E0F0E546E82
:1009C0003FC055F040C056F041C057F042C058F00B
:1009D000FF0E596E23EC00F045C065FF46AC658CF8
:1009E000660E486E0F0E496E476A4550475C10E22E
:1009F00047504824E16E000E4920E26E47504324E0
:100A0000E96E000E4420EA6EEECFE6FF472AEDD7EE
:0C0A10006086F10E6F16FF0E006E1200E3
:100A1C004D0E156E650E166E730E176E730E186EE8
:100A2C00610E196E670E1A6E650E1B6E3A0E1C6EF9
:100A3C001D6A816A080E936E946AA2DD010E536ED4
:100A4C009CEC00F00C0E536E9CEC00F0010E3F6E13
:100A5C00010E406E150E416E000E426E54DD206A82
:100A6C001E6A1F6AF40E1E6ED70E206E010E3F6EAC
:100A7C000A0E406E050E416E020E426E080E436E5B
:100A8C00D70E446EDFDE800E4C6EFF0E4D6E1EDDFB
:100A9C004C6AFF0E4D6EFF0E4E6E4F6E506EF70E83
:100AAC00516EF1DC010E4C6EFF0E4D6EFF0E4E6E54
:100ABC004F6E506EF70E516EE6DC050E4C6E030E4B
:100ACC004D6E000E4E6E000E4F6E000E506EF70EF9
:100ADC00516E0DEC01F04C6AFF0E4D6EF7DC090EF9
:100AEC00216E4F0E3F6E2F0E406E000E416E000EAB
:100AFC00426E210E436E000E446E010E456E1EC0FA
:100B0C0046F028DF2C0E3F6E000E406E210E416E1B
:100B1C00000E426E290E436E000E446E1F0E456E83
:100B2C00000E466E78DD00C02BF0005230E021C084
:100B3C0082FF21C03FF0300E406E000E416E49DE48
:100B4C00020E3F6E010E406E300E416E000E426E74
:100B5C00DADC212A290E0B6E960E0C6E7F0E0D6EB2
:100B6C000D2EFED70C2EFCD70B2EFAD74F0E3F6E48
:100B7C002F0E406E000E416E000E426E210E436E23
:100B8C00000E446E010E456E1EC046F0E3DEBAD771
:020B9C00FFD781
:020000040030CA
:0D000100220F0EFFFF81FF0FC00FE00F4028
:00000001FF
